{
  "transactions": [
    {
      "hash": "0x35f7c6ed4c03163874495b99b0f830159826bce116eaaeb9cc8b9f531a670586",
      "transactionType": "CALL",
      "contractName": null,
      "contractAddress": "0x6ddf5a7586affaa2974619f87356ec053411907f",
      "function": "mint(address,uint256[],uint256[],bytes)",
      "arguments": [
        "0xe321Fc4001dF24AF1Eb60E57FEf1c7DfFD665ED4",
        "[1, 2]",
        "[100, 200]",
        "0x"
      ],
      "transaction": {
        "from": "0xe321fc4001df24af1eb60e57fef1c7dffd665ed4",
        "to": "0x6ddf5a7586affaa2974619f87356ec053411907f",
        "gas": "0x19a19",
        "value": "0x0",
        "input": "0x440703d7000000000000000000000000e321fc4001df24af1eb60e57fef1c7dffd665ed4000000000000000000000000000000000000000000000000000000000000008000000000000000000000000000000000000000000000000000000000000000e000000000000000000000000000000000000000000000000000000000000001400000000000000000000000000000000000000000000000000000000000000002000000000000000000000000000000000000000000000000000000000000000100000000000000000000000000000000000000000000000000000000000000020000000000000000000000000000000000000000000000000000000000000002000000000000000000000000000000000000000000000000000000000000006400000000000000000000000000000000000000000000000000000000000000c80000000000000000000000000000000000000000000000000000000000000000",
        "nonce": "0x3",
        "chainId": "0xaa36a7"
      },
      "additionalContracts": [],
      "isFixedGasLimit": false
    },
    {
      "hash": "0xfdb640960e468536b505328545d222b02e2dae9882e7f6fe8825689375f1a293",
      "transactionType": "CALL",
      "contractName": null,
      "contractAddress": "0x6ddf5a7586affaa2974619f87356ec053411907f",
      "function": "burn(address,uint256[],uint256[])",
      "arguments": [
        "0xe321Fc4001dF24AF1Eb60E57FEf1c7DfFD665ED4",
        "[1, 2]",
        "[100, 200]"
      ],
      "transaction": {
        "from": "0xe321fc4001df24af1eb60e57fef1c7dffd665ed4",
        "to": "0x6ddf5a7586affaa2974619f87356ec053411907f",
        "gas": "0xb161",
        "value": "0x0",
        "input": "0x3db0f8ab000000000000000000000000e321fc4001df24af1eb60e57fef1c7dffd665ed4000000000000000000000000000000000000000000000000000000000000006000000000000000000000000000000000000000000000000000000000000000c00000000000000000000000000000000000000000000000000000000000000002000000000000000000000000000000000000000000000000000000000000000100000000000000000000000000000000000000000000000000000000000000020000000000000000000000000000000000000000000000000000000000000002000000000000000000000000000000000000000000000000000000000000006400000000000000000000000000000000000000000000000000000000000000c8",
        "nonce": "0x4",
        "chainId": "0xaa36a7"
      },
      "additionalContracts": [],
      "isFixedGasLimit": false
    }
  ],
  "receipts": [
    {
      "status": "0x1",
      "cumulativeGasUsed": "0x9ddd5a",
      "logs": [
        {
          "address": "0x6ddf5a7586affaa2974619f87356ec053411907f",
          "topics": [
            "0x4a39dc06d4c0dbc64b70af90fd698a233a518aa5d07e595d983b8c0526c8f7fb",
            "0x000000000000000000000000e321fc4001df24af1eb60e57fef1c7dffd665ed4",
            "0x0000000000000000000000000000000000000000000000000000000000000000",
            "0x000000000000000000000000e321fc4001df24af1eb60e57fef1c7dffd665ed4"
          ],
          "data": "0x000000000000000000000000000000000000000000000000000000000000004000000000000000000000000000000000000000000000000000000000000000a00000000000000000000000000000000000000000000000000000000000000002000000000000000000000000000000000000000000000000000000000000000100000000000000000000000000000000000000000000000000000000000000020000000000000000000000000000000000000000000000000000000000000002000000000000000000000000000000000000000000000000000000000000006400000000000000000000000000000000000000000000000000000000000000c8",
          "blockHash": "0x026a8323416ffdd5a314295d960e58827bb2ebe556fc37f0e5c884b60cb92e2c",
          "blockNumber": "0x6305a7",
          "transactionHash": "0x35f7c6ed4c03163874495b99b0f830159826bce116eaaeb9cc8b9f531a670586",
          "transactionIndex": "0x37",
          "logIndex": "0xc1",
          "removed": false
        }
      ],
      "logsBloom": "0x00000000000000010000000000000000000000000000000000000000000000000000000000000000000000000000000000000000000000000000000000000000000000000000000000000000000000000000002000000000000000000000000000000000020000000000000000000800000000000800000000000000000000000000000000000000000000000000000000000000000000000000000000000000008000000000000000000000000400000000000000002000000000000000000000000000000000000000000000000020000400000000000000000000000020000000000000000000000000000000000000000000000000000000000002000000",
      "type": "0x2",
      "transactionHash": "0x35f7c6ed4c03163874495b99b0f830159826bce116eaaeb9cc8b9f531a670586",
      "transactionIndex": "0x37",
      "blockHash": "0x026a8323416ffdd5a314295d960e58827bb2ebe556fc37f0e5c884b60cb92e2c",
      "blockNumber": "0x6305a7",
      "gasUsed": "0x128e8",
      "effectiveGasPrice": "0x2c3f9d777",
      "from": "0xe321fc4001df24af1eb60e57fef1c7dffd665ed4",
      "to": "0x6ddf5a7586affaa2974619f87356ec053411907f",
      "contractAddress": null
    },
    {
      "status": "0x1",
      "cumulativeGasUsed": "0x9e5dc6",
      "logs": [
        {
          "address": "0x6ddf5a7586affaa2974619f87356ec053411907f",
          "topics": [
            "0x4a39dc06d4c0dbc64b70af90fd698a233a518aa5d07e595d983b8c0526c8f7fb",
            "0x000000000000000000000000e321fc4001df24af1eb60e57fef1c7dffd665ed4",
            "0x000000000000000000000000e321fc4001df24af1eb60e57fef1c7dffd665ed4",
            "0x0000000000000000000000000000000000000000000000000000000000000000"
          ],
          "data": "0x000000000000000000000000000000000000000000000000000000000000004000000000000000000000000000000000000000000000000000000000000000a00000000000000000000000000000000000000000000000000000000000000002000000000000000000000000000000000000000000000000000000000000000100000000000000000000000000000000000000000000000000000000000000020000000000000000000000000000000000000000000000000000000000000002000000000000000000000000000000000000000000000000000000000000006400000000000000000000000000000000000000000000000000000000000000c8",
          "blockHash": "0x026a8323416ffdd5a314295d960e58827bb2ebe556fc37f0e5c884b60cb92e2c",
          "blockNumber": "0x6305a7",
          "transactionHash": "0xfdb640960e468536b505328545d222b02e2dae9882e7f6fe8825689375f1a293",
          "transactionIndex": "0x38",
          "logIndex": "0xc2",
          "removed": false
        }
      ],
      "logsBloom": "0x00000000000000010000000000000000000000000000000000000000000000000000000000000000000000000000000000000000000000000000000000000000000000000000000000000000000000000000002000000000000000000000000000000000020000000000000000000800000000000800000000000000000000000000000000000000000000000000000000000000000000000000000000000000008000000000000000000000000400000000000000002000000000000000000000000000000000000000000000000020000400000000000000000000000020000000000000000000000000000000000000000000000000000000000002000000",
      "type": "0x2",
      "transactionHash": "0xfdb640960e468536b505328545d222b02e2dae9882e7f6fe8825689375f1a293",
      "transactionIndex": "0x38",
      "blockHash": "0x026a8323416ffdd5a314295d960e58827bb2ebe556fc37f0e5c884b60cb92e2c",
      "blockNumber": "0x6305a7",
      "gasUsed": "0x806c",
      "effectiveGasPrice": "0x2c3f9d777",
      "from": "0xe321fc4001df24af1eb60e57fef1c7dffd665ed4",
      "to": "0x6ddf5a7586affaa2974619f87356ec053411907f",
      "contractAddress": null
    }
  ],
  "libraries": [],
  "pending": [],
  "returns": {},
  "timestamp": 1723515286,
  "chain": 11155111,
  "commit": "d0d4a35"
}