{
  "transactions": [
    {
      "hash": "0xb0d0c5b9051fd70a85ba842412adbca3f27554399445c4947cbb03336ef0b915",
      "transactionType": "CALL",
      "contractName": null,
      "contractAddress": "0x4286568d242ee2ef72683ab1fc2dbd49e0b09d21",
      "function": "mint(address,uint256[],uint256[],bytes)",
      "arguments": [
        "0x8C013D87002b1D6956988B1597FCe68DD39442C5",
        "[0, 1, 2, 3, 4, 5]",
        "[10, 10, 10, 10, 10, 10]",
        "0x"
      ],
      "transaction": {
        "from": "0x8c013d87002b1d6956988b1597fce68dd39442c5",
        "to": "0x4286568d242ee2ef72683ab1fc2dbd49e0b09d21",
        "gas": "0x3910a",
        "value": "0x0",
        "input": "0x440703d70000000000000000000000008c013d87002b1d6956988b1597fce68dd39442c500000000000000000000000000000000000000000000000000000000000000800000000000000000000000000000000000000000000000000000000000000160000000000000000000000000000000000000000000000000000000000000024000000000000000000000000000000000000000000000000000000000000000060000000000000000000000000000000000000000000000000000000000000000000000000000000000000000000000000000000000000000000000000000000100000000000000000000000000000000000000000000000000000000000000020000000000000000000000000000000000000000000000000000000000000003000000000000000000000000000000000000000000000000000000000000000400000000000000000000000000000000000000000000000000000000000000050000000000000000000000000000000000000000000000000000000000000006000000000000000000000000000000000000000000000000000000000000000a000000000000000000000000000000000000000000000000000000000000000a000000000000000000000000000000000000000000000000000000000000000a000000000000000000000000000000000000000000000000000000000000000a000000000000000000000000000000000000000000000000000000000000000a000000000000000000000000000000000000000000000000000000000000000a0000000000000000000000000000000000000000000000000000000000000000",
        "nonce": "0x18",
        "chainId": "0xaa36a7"
      },
      "additionalContracts": [],
      "isFixedGasLimit": false
    }
  ],
  "receipts": [
    {
      "status": "0x1",
      "cumulativeGasUsed": "0x6583ce",
      "logs": [
        {
          "address": "0x4286568d242ee2ef72683ab1fc2dbd49e0b09d21",
          "topics": [
            "0x4a39dc06d4c0dbc64b70af90fd698a233a518aa5d07e595d983b8c0526c8f7fb",
            "0x0000000000000000000000008c013d87002b1d6956988b1597fce68dd39442c5",
            "0x0000000000000000000000000000000000000000000000000000000000000000",
            "0x0000000000000000000000008c013d87002b1d6956988b1597fce68dd39442c5"
          ],
          "data": "0x0000000000000000000000000000000000000000000000000000000000000040000000000000000000000000000000000000000000000000000000000000012000000000000000000000000000000000000000000000000000000000000000060000000000000000000000000000000000000000000000000000000000000000000000000000000000000000000000000000000000000000000000000000000100000000000000000000000000000000000000000000000000000000000000020000000000000000000000000000000000000000000000000000000000000003000000000000000000000000000000000000000000000000000000000000000400000000000000000000000000000000000000000000000000000000000000050000000000000000000000000000000000000000000000000000000000000006000000000000000000000000000000000000000000000000000000000000000a000000000000000000000000000000000000000000000000000000000000000a000000000000000000000000000000000000000000000000000000000000000a000000000000000000000000000000000000000000000000000000000000000a000000000000000000000000000000000000000000000000000000000000000a000000000000000000000000000000000000000000000000000000000000000a",
          "blockHash": "0xed6e15b134a4afb03d360c104ff10a7afe3e0d6e75d429ecf0aa996af09b0190",
          "blockNumber": "0x62fcd6",
          "transactionHash": "0xb0d0c5b9051fd70a85ba842412adbca3f27554399445c4947cbb03336ef0b915",
          "transactionIndex": "0x30",
          "logIndex": "0x40",
          "removed": false
        }
      ],
      "logsBloom": "0x00000000000000000002000000000000000000080000000000000000000000000000000000000000000000000000000000000000000000000000000000000000000000000000000000000000000000000000000000000000000000000000000000000000020000000000000000000800000000000800000000000000000000000000000000000000000000000000000000000000000000000000000000000000000000000000010000000000000004000000000000000000000000000000000000000000000000000000000000000000000400000000000000000000000020000000000000001008000000000000000000000000000000000000000002000000",
      "type": "0x2",
      "transactionHash": "0xb0d0c5b9051fd70a85ba842412adbca3f27554399445c4947cbb03336ef0b915",
      "transactionIndex": "0x30",
      "blockHash": "0xed6e15b134a4afb03d360c104ff10a7afe3e0d6e75d429ecf0aa996af09b0190",
      "blockNumber": "0x62fcd6",
      "gasUsed": "0x29507",
      "effectiveGasPrice": "0x1a6ca8d14",
      "from": "0x8c013d87002b1d6956988b1597fce68dd39442c5",
      "to": "0x4286568d242ee2ef72683ab1fc2dbd49e0b09d21",
      "contractAddress": null
    }
  ],
  "libraries": [],
  "pending": [],
  "returns": {},
  "timestamp": 1723484882,
  "chain": 11155111,
  "commit": "d0d4a35"
}