{
  "transactions": [
    {
      "hash": "0x044d39676f0b9260a1d46371cc5d454a9c3b68a919dfc1839e9265a9c5f3ee5a",
      "transactionType": "CALL",
      "contractName": null,
      "contractAddress": "0x0573b09932e6274e032f91f27c327220defc53d0",
      "function": "mint(address,uint256[],uint256[],bytes)",
      "arguments": [
        "0xe321Fc4001dF24AF1Eb60E57FEf1c7DfFD665ED4",
        "[1, 2]",
        "[10, 15]",
        "0x"
      ],
      "transaction": {
        "from": "0xe321fc4001df24af1eb60e57fef1c7dffd665ed4",
        "to": "0x0573b09932e6274e032f91f27c327220defc53d0",
        "gas": "0x19a19",
        "value": "0x0",
        "input": "0x440703d7000000000000000000000000e321fc4001df24af1eb60e57fef1c7dffd665ed4000000000000000000000000000000000000000000000000000000000000008000000000000000000000000000000000000000000000000000000000000000e000000000000000000000000000000000000000000000000000000000000001400000000000000000000000000000000000000000000000000000000000000002000000000000000000000000000000000000000000000000000000000000000100000000000000000000000000000000000000000000000000000000000000020000000000000000000000000000000000000000000000000000000000000002000000000000000000000000000000000000000000000000000000000000000a000000000000000000000000000000000000000000000000000000000000000f0000000000000000000000000000000000000000000000000000000000000000",
        "nonce": "0x0",
        "chainId": "0xaa36a7"
      },
      "additionalContracts": [],
      "isFixedGasLimit": false
    }
  ],
  "receipts": [
    {
      "status": "0x1",
      "cumulativeGasUsed": "0xea4a96",
      "logs": [
        {
          "address": "0x0573b09932e6274e032f91f27c327220defc53d0",
          "topics": [
            "0x4a39dc06d4c0dbc64b70af90fd698a233a518aa5d07e595d983b8c0526c8f7fb",
            "0x000000000000000000000000e321fc4001df24af1eb60e57fef1c7dffd665ed4",
            "0x0000000000000000000000000000000000000000000000000000000000000000",
            "0x000000000000000000000000e321fc4001df24af1eb60e57fef1c7dffd665ed4"
          ],
          "data": "0x000000000000000000000000000000000000000000000000000000000000004000000000000000000000000000000000000000000000000000000000000000a00000000000000000000000000000000000000000000000000000000000000002000000000000000000000000000000000000000000000000000000000000000100000000000000000000000000000000000000000000000000000000000000020000000000000000000000000000000000000000000000000000000000000002000000000000000000000000000000000000000000000000000000000000000a000000000000000000000000000000000000000000000000000000000000000f",
          "blockHash": "0x01a292c8962cacdc7125a6fa3596795d259899fbcf0e207484156d40a164bc8a",
          "blockNumber": "0x630545",
          "transactionHash": "0x044d39676f0b9260a1d46371cc5d454a9c3b68a919dfc1839e9265a9c5f3ee5a",
          "transactionIndex": "0x44",
          "logIndex": "0x113",
          "removed": false
        }
      ],
      "logsBloom": "0x00000000000000010000000000000000000000000000000000000000000000000000000000000000000000000000000000000000000000000000000000000000000000000000000000000000000000000000002000000000000000000000000000000000020000000000000000000800000000000800000000000000000000000000000000000000000000000000000000000000000000000000000000000000000000000000000000000000000400000000000000000000000000000000000000000000000000000200000000000000000400000000000000000000000020000000000000000080000000000000000000000000100000000000000002000000",
      "type": "0x2",
      "transactionHash": "0x044d39676f0b9260a1d46371cc5d454a9c3b68a919dfc1839e9265a9c5f3ee5a",
      "transactionIndex": "0x44",
      "blockHash": "0x01a292c8962cacdc7125a6fa3596795d259899fbcf0e207484156d40a164bc8a",
      "blockNumber": "0x630545",
      "gasUsed": "0x128e8",
      "effectiveGasPrice": "0x137a2760e",
      "from": "0xe321fc4001df24af1eb60e57fef1c7dffd665ed4",
      "to": "0x0573b09932e6274e032f91f27c327220defc53d0",
      "contractAddress": null
    }
  ],
  "libraries": [],
  "pending": [],
  "returns": {},
  "timestamp": 1723513942,
  "chain": 11155111,
  "commit": "d0d4a35"
}