{
  "transactions": [
    {
      "hash": "0x868ef9f9f21f01d6a21da63aef48bf8303c49e65c5436f6b8d6ee00c7de836d7",
      "transactionType": "CALL",
      "contractName": null,
      "contractAddress": "0x6ddf5a7586affaa2974619f87356ec053411907f",
      "function": "mint(address,uint256[],uint256[],bytes)",
      "arguments": [
        "0xe321Fc4001dF24AF1Eb60E57FEf1c7DfFD665ED4",
        "[1, 2]",
        "[100, 200]",
        "0x"
      ],
      "transaction": {
        "from": "0xe321fc4001df24af1eb60e57fef1c7dffd665ed4",
        "to": "0x6ddf5a7586affaa2974619f87356ec053411907f",
        "gas": "0x19a19",
        "value": "0x0",
        "input": "0x440703d7000000000000000000000000e321fc4001df24af1eb60e57fef1c7dffd665ed4000000000000000000000000000000000000000000000000000000000000008000000000000000000000000000000000000000000000000000000000000000e000000000000000000000000000000000000000000000000000000000000001400000000000000000000000000000000000000000000000000000000000000002000000000000000000000000000000000000000000000000000000000000000100000000000000000000000000000000000000000000000000000000000000020000000000000000000000000000000000000000000000000000000000000002000000000000000000000000000000000000000000000000000000000000006400000000000000000000000000000000000000000000000000000000000000c80000000000000000000000000000000000000000000000000000000000000000",
        "nonce": "0x5",
        "chainId": "0xaa36a7"
      },
      "additionalContracts": [],
      "isFixedGasLimit": false
    }
  ],
  "receipts": [
    {
      "status": "0x1",
      "cumulativeGasUsed": "0x115a41b",
      "logs": [
        {
          "address": "0x6ddf5a7586affaa2974619f87356ec053411907f",
          "topics": [
            "0x4a39dc06d4c0dbc64b70af90fd698a233a518aa5d07e595d983b8c0526c8f7fb",
            "0x000000000000000000000000e321fc4001df24af1eb60e57fef1c7dffd665ed4",
            "0x0000000000000000000000000000000000000000000000000000000000000000",
            "0x000000000000000000000000e321fc4001df24af1eb60e57fef1c7dffd665ed4"
          ],
          "data": "0x000000000000000000000000000000000000000000000000000000000000004000000000000000000000000000000000000000000000000000000000000000a00000000000000000000000000000000000000000000000000000000000000002000000000000000000000000000000000000000000000000000000000000000100000000000000000000000000000000000000000000000000000000000000020000000000000000000000000000000000000000000000000000000000000002000000000000000000000000000000000000000000000000000000000000006400000000000000000000000000000000000000000000000000000000000000c8",
          "blockHash": "0x4376951b5a5f2a5e598c9c223a8d32f09b55dd8d21f885d577623ded5541a023",
          "blockNumber": "0x6305b5",
          "transactionHash": "0x868ef9f9f21f01d6a21da63aef48bf8303c49e65c5436f6b8d6ee00c7de836d7",
          "transactionIndex": "0x21",
          "logIndex": "0x13f",
          "removed": false
        }
      ],
      "logsBloom": "0x00000000000000010000000000000000000000000000000000000000000000000000000000000000000000000000000000000000000000000000000000000000000000000000000000000000000000000000002000000000000000000000000000000000020000000000000000000800000000000800000000000000000000000000000000000000000000000000000000000000000000000000000000000000008000000000000000000000000400000000000000002000000000000000000000000000000000000000000000000020000400000000000000000000000020000000000000000000000000000000000000000000000000000000000002000000",
      "type": "0x2",
      "transactionHash": "0x868ef9f9f21f01d6a21da63aef48bf8303c49e65c5436f6b8d6ee00c7de836d7",
      "transactionIndex": "0x21",
      "blockHash": "0x4376951b5a5f2a5e598c9c223a8d32f09b55dd8d21f885d577623ded5541a023",
      "blockNumber": "0x6305b5",
      "gasUsed": "0x128e8",
      "effectiveGasPrice": "0x35ad639a5",
      "from": "0xe321fc4001df24af1eb60e57fef1c7dffd665ed4",
      "to": "0x6ddf5a7586affaa2974619f87356ec053411907f",
      "contractAddress": null
    }
  ],
  "libraries": [],
  "pending": [],
  "returns": {},
  "timestamp": 1723515490,
  "chain": 11155111,
  "commit": "d0d4a35"
}