{
  "transactions": [
    {
      "hash": "0x05be3ee4f6896cc49d0db2a2cfbd4ae3946077aaa2d9d66c3e8395a7ffa5618e",
      "transactionType": "CALL",
      "contractName": null,
      "contractAddress": "0x55e7b9985c245920ae5bd5a39f07896c9fd7ef56",
      "function": "mint(address,uint256[],uint256[],bytes)",
      "arguments": [
        "0x8C013D87002b1D6956988B1597FCe68DD39442C5",
        "[1, 2]",
        "[10, 20]",
        "0x"
      ],
      "transaction": {
        "from": "0x8c013d87002b1d6956988b1597fce68dd39442c5",
        "to": "0x55e7b9985c245920ae5bd5a39f07896c9fd7ef56",
        "gas": "0x1b182",
        "value": "0x0",
        "input": "0x440703d70000000000000000000000008c013d87002b1d6956988b1597fce68dd39442c5000000000000000000000000000000000000000000000000000000000000008000000000000000000000000000000000000000000000000000000000000000e000000000000000000000000000000000000000000000000000000000000001400000000000000000000000000000000000000000000000000000000000000002000000000000000000000000000000000000000000000000000000000000000100000000000000000000000000000000000000000000000000000000000000020000000000000000000000000000000000000000000000000000000000000002000000000000000000000000000000000000000000000000000000000000000a00000000000000000000000000000000000000000000000000000000000000140000000000000000000000000000000000000000000000000000000000000000",
        "nonce": "0x15",
        "chainId": "0xaa36a7"
      },
      "additionalContracts": [],
      "isFixedGasLimit": false
    }
  ],
  "receipts": [
    {
      "status": "0x1",
      "cumulativeGasUsed": "0x1b1dc6f",
      "logs": [
        {
          "address": "0x55e7b9985c245920ae5bd5a39f07896c9fd7ef56",
          "topics": [
            "0x4a39dc06d4c0dbc64b70af90fd698a233a518aa5d07e595d983b8c0526c8f7fb",
            "0x0000000000000000000000008c013d87002b1d6956988b1597fce68dd39442c5",
            "0x0000000000000000000000000000000000000000000000000000000000000000",
            "0x0000000000000000000000008c013d87002b1d6956988b1597fce68dd39442c5"
          ],
          "data": "0x000000000000000000000000000000000000000000000000000000000000004000000000000000000000000000000000000000000000000000000000000000a00000000000000000000000000000000000000000000000000000000000000002000000000000000000000000000000000000000000000000000000000000000100000000000000000000000000000000000000000000000000000000000000020000000000000000000000000000000000000000000000000000000000000002000000000000000000000000000000000000000000000000000000000000000a0000000000000000000000000000000000000000000000000000000000000014",
          "blockHash": "0x8f20a0d398376068d6e14af85087255cb75227a5e480ca337e0ccb8ef617b453",
          "blockNumber": "0x62fc0f",
          "transactionHash": "0x05be3ee4f6896cc49d0db2a2cfbd4ae3946077aaa2d9d66c3e8395a7ffa5618e",
          "transactionIndex": "0x56",
          "logIndex": "0xc1",
          "removed": false
        }
      ],
      "logsBloom": "0x00000000000000000000000000000000000000080000000000000000000000000000000000000000000000000000000000000000000000000000000000000000000000000000000000000000000000000000000000000000000000000000000000000000020000000000000000000800000000000800000000000000000000000000000000000000000000000000000000000000000000000000000000000000002000000000000000000000000000000000000000000000000000000000000000000000000000000000000000000000000400000000000000000000000020000000000000001008000000000000000020000000000000000000000002000020",
      "type": "0x2",
      "transactionHash": "0x05be3ee4f6896cc49d0db2a2cfbd4ae3946077aaa2d9d66c3e8395a7ffa5618e",
      "transactionIndex": "0x56",
      "blockHash": "0x8f20a0d398376068d6e14af85087255cb75227a5e480ca337e0ccb8ef617b453",
      "blockNumber": "0x62fc0f",
      "gasUsed": "0x1286b",
      "effectiveGasPrice": "0x462dca40",
      "from": "0x8c013d87002b1d6956988b1597fce68dd39442c5",
      "to": "0x55e7b9985c245920ae5bd5a39f07896c9fd7ef56",
      "contractAddress": null
    }
  ],
  "libraries": [],
  "pending": [],
  "returns": {},
  "timestamp": 1723482218,
  "chain": 11155111,
  "commit": "d0d4a35"
}