{
  "transactions": [
    {
      "hash": "0xf2cbb4b5815c3ade720e202170aa51e9b3d037c4d8de7c479e796cae6472c366",
      "transactionType": "CALL",
      "contractName": null,
      "contractAddress": "0x73816880288fb8be31cada2d19f883559e5ef325",
      "function": "mint(address,uint256[],uint256[],bytes)",
      "arguments": [
        "0xe1F82e2C783a10dEB1877cC69c7f4BC4817e52AE",
        "[1, 2]",
        "[10, 15]",
        "0x"
      ],
      "transaction": {
        "from": "0xe1f82e2c783a10deb1877cc69c7f4bc4817e52ae",
        "to": "0x73816880288fb8be31cada2d19f883559e5ef325",
        "gas": "0x19a19",
        "value": "0x0",
        "input": "0x440703d7000000000000000000000000e1f82e2c783a10deb1877cc69c7f4bc4817e52ae000000000000000000000000000000000000000000000000000000000000008000000000000000000000000000000000000000000000000000000000000000e000000000000000000000000000000000000000000000000000000000000001400000000000000000000000000000000000000000000000000000000000000002000000000000000000000000000000000000000000000000000000000000000100000000000000000000000000000000000000000000000000000000000000020000000000000000000000000000000000000000000000000000000000000002000000000000000000000000000000000000000000000000000000000000000a000000000000000000000000000000000000000000000000000000000000000f0000000000000000000000000000000000000000000000000000000000000000",
        "nonce": "0x1",
        "chainId": "0x539"
      },
      "additionalContracts": [],
      "isFixedGasLimit": false
    }
  ],
  "receipts": [
    {
      "status": "0x1",
      "cumulativeGasUsed": "0x128e8",
      "logs": [
        {
          "address": "0x73816880288fb8be31cada2d19f883559e5ef325",
          "topics": [
            "0x4a39dc06d4c0dbc64b70af90fd698a233a518aa5d07e595d983b8c0526c8f7fb",
            "0x000000000000000000000000e1f82e2c783a10deb1877cc69c7f4bc4817e52ae",
            "0x0000000000000000000000000000000000000000000000000000000000000000",
            "0x000000000000000000000000e1f82e2c783a10deb1877cc69c7f4bc4817e52ae"
          ],
          "data": "0x000000000000000000000000000000000000000000000000000000000000004000000000000000000000000000000000000000000000000000000000000000a00000000000000000000000000000000000000000000000000000000000000002000000000000000000000000000000000000000000000000000000000000000100000000000000000000000000000000000000000000000000000000000000020000000000000000000000000000000000000000000000000000000000000002000000000000000000000000000000000000000000000000000000000000000a000000000000000000000000000000000000000000000000000000000000000f",
          "blockHash": "0xe961af7b40e728e9443add3724a5df709c6ac356c39e2b000301e12a08021b1c",
          "blockNumber": "0x2",
          "transactionHash": "0xf2cbb4b5815c3ade720e202170aa51e9b3d037c4d8de7c479e796cae6472c366",
          "transactionIndex": "0x0",
          "logIndex": "0x0",
          "removed": false
        }
      ],
      "logsBloom": "0x00000000080000000000000000000000000000000000000000000000000000000000000000000000000000000000000000000000000000000000000000000000000000000000000000000000000000000000000000000000000000080000000000000000020000000000008000000800000000000800000000000000000000000000000000000000000000000000000000000000000000000000000000000000000000000000000000000020000000000000000000000000000000000000000000000000000000000000000000000000000400000000000000800000000020000000000000000000000000000000000000020000000000000000000002000000",
      "type": "0x2",
      "transactionHash": "0xf2cbb4b5815c3ade720e202170aa51e9b3d037c4d8de7c479e796cae6472c366",
      "transactionIndex": "0x0",
      "blockHash": "0xe961af7b40e728e9443add3724a5df709c6ac356c39e2b000301e12a08021b1c",
      "blockNumber": "0x2",
      "gasUsed": "0x128e8",
      "effectiveGasPrice": "0x303e3e70",
      "from": "0xe1f82e2c783a10deb1877cc69c7f4bc4817e52ae",
      "to": "0x73816880288fb8be31cada2d19f883559e5ef325",
      "contractAddress": null
    }
  ],
  "libraries": [],
  "pending": [],
  "returns": {},
  "timestamp": 1723493980,
  "chain": 1337,
  "commit": "d0d4a35"
}